:020000040800F2
:100000003004002001010008FD08000881060008F6
:10001000F9080008490100087D0D000800000000F3
:10002000000000000000000000000000BD09000802
:10003000810200080000000099090008410C000836
:100040001B0100081B0100081B0100081B01000820
:100050001B0100081B0100081B0100081B01000810
:100060001B0100081B0100081B0100081B01000800
:100070001B0100081B0100081B0100081B010008F0
:100080001B0100081B0100081B0100081B010008E0
:100090001B0100081B0100081B0100081B010008D0
:1000A0001B0100081B0100081B0100081B010008C0
:1000B0001B0100081B0100081B0100081B010008B0
:1000C0001B0100081B0100081B0100081B010008A0
:1000D0001B0100081B0100081B0100081B01000890
:1000E0001B0100081B0100081B010008DFF80CD0F1
:1000F00000F018F800480047BD0D0008300400204B
:100100000648804706480047FEE7FEE7FEE7FEE7B1
:10011000FEE7FEE7FEE7FEE7FEE7FEE7450C000828
:10012000ED000008064C074D06E0E06840F00103D2
:1001300094E8070098471034AC42F6D3FFF7DAFF93
:100140006C0E00088C0E000800BFFEE72DE9F041A0
:1001500080460D4616461F4627B300F023FBD020ED
:1001600000F05EFBD8B9404600F05AFB00F01AFBE5
:10017000D12000F055FB00240FE000F0BBFA2870FE
:10018000701EA04203D1012000F07CFA02E00020A2
:1001900000F078FA6D1C601CC4B2B442EDDB00F0D4
:1001A00023FB14E000F0FEFAD02000F039FB60B928
:1001B000404600F035FB002405E0287800F030FBD5
:1001C0006D1C601CC4B2B442F7DB00F00DFBBDE84F
:1001D000F08100001CB5044664B301230722694680
:1001E0000020FFF7B3FF9DF8000000F07F002349D7
:1001F000C8719DF8010000F07F0088719DF8020031
:1002000000F03F0048719DF8030000F00700C8703F
:100210009DF8040000F03F0008719DF8050000F013
:100220001F0088709DF8060042F21601084313492A
:10023000088021E01148C0798DF800000F488079CE
:100240008DF801000D4840798DF802000B48C07808
:100250008DF80300094800798DF80400074880787C
:100260008DF80500054800788DF806000023072268
:1002700069461846FFF76AFF1CBD00001E000020FB
:100280007047002105E0002200E0521CFA2AFCD34E
:10029000491C8142F7D370472DE9F0410246002501
:1002A0000026002000230024002791F803C00CF052
:1002B0000F0591F803C00CF0100CBCF1000F03D037
:1002C00091F802C04CEA050591F800C0BCF1000F9E
:1002D00031D0146800202BE04FF0010C0CFA00F331
:1002E000B1F800C00CEA03069E4220D183004FF013
:1002F0000F0C0CFA03F7BC4305FA03FC4CEA0404A8
:1003000091F803C0BCF1280F06D14FF0010C0CFA94
:1003100000FCC2F814C00AE091F803C0BCF1480F19
:1003200005D14FF0010C0CFA00FCC2F810C0401CC3
:100330000828D1D31460B1F800C0BCF1FF0F34DD40
:10034000546800202EE000F1080C4FF0010808FA74
:100350000CF3B1F800C00CEA03069E4221D18300E1
:100360004FF00F0C0CFA03F7BC4305FA03FC4CEA00
:10037000040491F803C0BCF1280F05D100F1080C6A
:1003800008FA0CF8C2F8148091F803C0BCF1480FC9
:1003900007D100F1080C4FF0010808FA0CF8C2F878
:1003A0001080401C0828CED35460BDE8F08102467E
:1003B000002093680B400BB1012000E00020704743
:1003C000416170470161704738B504460121202022
:1003D00000F0E4FA0420ADF8000014208DF80300CA
:1003E00003208DF8020069463F48FFF755FF0121C1
:1003F000102000F0D3FA4FF4E050ADF800001420C4
:100400008DF8030003208DF8020069463748FFF796
:1004100043FF0121082000F0C1FAE020ADF8000000
:1004200014208DF8030003208DF80200694630483F
:10043000FFF732FF0121042000F0B0FAE820ADF808
:10044000000010208DF8030003208DF8020069469B
:100450002848FFF721FF0121102000F09FFA3F20DC
:10046000ADF8000010208DF8030003208DF8020085
:1004700069461E48FFF710FF4FF40070ADF800000A
:1004800010208DF8030003208DF8020069461848FB
:10049000FFF702FF1020ADF8000048208DF80300A0
:1004A00069461448FFF7F8FE4FF480610F48FFF7E4
:1004B00089FF80210E48FFF783FF40210C48FFF79A
:1004C0007FFF20210A48FFF77BFF04210648FFF742
:1004D00077FF4FF400610548FFF772FF4FF480513A
:1004E0000248FFF76DFF38BD0014014000100140C5
:1004F000000C01400008014010B54FF4805107483E
:10050000FFF760FF3220FFF7BCFE4FF48051034835
:10051000FFF756FF1420FFF7B4FE10BD0010014096
:100520002DE9F04106460F463C4600254AE04FF4CF
:1005300000615048FFF744FF04F0010020B104219E
:100540004D48FFF73FFF03E004214B48FFF738FF1A
:10055000640804F0010020B120214848FFF732FF71
:1005600003E020214548FFF72BFF640804F0010059
:1005700020B140214148FFF725FF03E040213F48DB
:10058000FFF71EFF640804F0010020B180213B4802
:10059000FFF718FF03E080213848FFF711FF6408D8
:1005A0001420FFF76EFE4FF400613248FFF70AFF98
:1005B0001420FFF766FE4FF400612E48FFF700FF9E
:1005C000681CC5B2082DB2DB344600254DE04FF45F
:1005D00000612848FFF7F4FE04F0010020B1042177
:1005E0002548FFF7EFFE03E004212348FFF7E8FE6C
:1005F000640804F0010020B120212048FFF7E2FE4A
:1006000003E020211D48FFF7DBFE640804F0010031
:1006100020B140211948FFF7D5FE03E040211748DB
:10062000FFF7CEFE640804F0010020B180211348DA
:10063000FFF7C8FE03E080211048FFF7C1FE640801
:100640001420FFF71EFE4FF400610A48FFF7BAFEC0
:100650001420FFF716FE4FF400610648FFF7B0FEC6
:100660001420FFF70EFE681CC5B2082DAFDBBDE8F5
:10067000F08100000010014000140140000C014016
:1006800000BFFEE710B5044600F076F824B1012162
:100690000C48FFF797FE03E001210A48FFF790FEA0
:1006A000022000F07CFB02210648FFF78BFE0220AF
:1006B00000F075FB02210348FFF782FE022000F0E4
:1006C0006EFB10BD000C014008B50121082000F0B0
:1006D00065F90320ADF8000010208DF80300032019
:1006E0008DF8020069460248FFF7D6FD08BD0000FC
:1006F000000C014070B5002401211548FFF762FE8F
:1007000000F028F800251BE06006040E022000F02F
:1007100046FB02210E48FFF755FE022000F03FFB8A
:1007200001210B48FFF743FE08B144F00104022108
:100730000748FFF745FE022000F031FB681CC5B2F8
:10074000082DE1DB02210248FFF73AFE204670BD8A
:10075000000C014008B50121082000F01FF901201C
:10076000ADF8000048208DF8030069460148FFF706
:1007700093FD08BD000C014008B50121082000F0E0
:100780000DF90120ADF8000010208DF803000320C2
:100790008DF8020069460248FFF77EFD08BD0000A3
:1007A000000C014010B5FFF7E7FF01210D48FFF7EE
:1007B00009FE022000F0F3FA02210A48FFF702FEC8
:1007C000022000F0ECFA01210648FFF7F9FD0220B3
:1007D00000F0E5FA02210348FFF7F2FD022000F0E5
:1007E000DEFA10BD000C014010B5FFF7C5FF012176
:1007F0000A48FFF7E5FD022000F0D1FA0221074880
:10080000FFF7DEFD022000F0CAFA01210348FFF7DE
:10081000D9FD022000F0C3FA10BD0000000C014019
:1008200070B504460026FFF7A7FF00251DE004F081
:10083000800020B101211B48FFF7C4FD03E0012126
:100840001848FFF7BDFD022000F0A9FA0221154863
:10085000FFF7B8FD022000F0A2FA02211148FFF7CD
:10086000AFFD6006040E681CC5B2082DDFDB012158
:100870000C48FFF7A7FDFFF76DFF022000F08FFA8D
:1008800002210848FFF79EFD022000F088FA0121AE
:100890000448FFF78CFD064302210248FFF790FD54
:1008A000304670BD000C014008B50121102000F059
:1008B00075F8E820ADF8000010208DF80300032043
:1008C0008DF8020069460A48FFF7E6FC0121102076
:1008D00000F064F83020ADF8000010208DF803001F
:1008E00003208DF8020069460248FFF7D5FC08BDD9
:1008F000000801400010014000BFFEE77047000003
:1009000010B51648007880F00100144908700846B8
:100910000078012810D102211148FFF751FD012173
:100920000F48FFF74DFD08210D48FFF749FD042151
:100930000B48FFF745FD0FE002210948FFF742FD94
:1009400001210748FFF73EFD08210548FFF73AFD62
:1009500004210348FFF736FD10BD0000060000200B
:100960000010014010B50020094908700221094813
:10097000FFF726FD01210748FFF722FD0821054862
:10098000FFF71EFD04210348FFF71AFD10BD00000C
:1009900006000020001001407047000029B1064AFF
:1009A00092690243044B9A6104E0034A92698243CC
:1009B000014B9A6170470000001002407047000030
:1009C0002DE9F04F85B004464FF0FF3948460490BA
:1009D00000254FF6FF500390207818B94FF6FE70AF
:1009E00003900DE0002507E0039840100390039862
:1009F00040F4004003906D1C2078401EA842F3DCB8
:100A00004FF6FF5A607810B94FF6FE7A0AE00025DB
:100A100004E04FEA6A0A4AF4004A6D1C6078401EFE
:100A2000A842F6DC4FF6FF5BA07810B94FF6FE7BCC
:100A30000AE0002504E04FEA6B0B4BF4004B6D1C01
:100A4000A078401EA842F6DC4FF6FF58E07810B9B7
:100A50004FF6FE780AE0002504E04FEA680848F403
:100A600000486D1CE078401EA842F6DC4FF6FF50AF
:100A70000290207918B94FF6FE7002900DE0002523
:100A800007E0029840100290029840F40040029063
:100A90006D1C2079401EA842F3DC4FF6FF500190F8
:100AA000607918B94FF6FE7001900DE0002507E05F
:100AB000019840100190019840F4004001906D1C95
:100AC0006079401EA842F3DC039EB6051F4806432A
:100AD00009EA0609564636034FEAB020064309EAFA
:100AE00006095E46B6008012064309EA0609CDF8FB
:100AF0000080DDF800804FEA282000904FF6FC715E
:100B0000009808430090009E66F0030609EA060973
:100B100047463F0667F07F47049838400490029F9D
:100B2000BF030B480743049838400490019F3F01DE
:100B30000848074304983840049048460499FFF752
:100B4000EFFCFFF7D9FC05B0BDE8F08FFFFF3F00D9
:100B5000FF3F00FF0FC0FFFF10B500F001F810BD10
:100B60000CB50020019000903348006840F48030BC
:100B70003149086000BF3048006800F40030009040
:100B80000198401C0190009818B90198B0F5A06F29
:100B9000F1D12948006800F4003010B10120009024
:100BA00001E0002000900098012843D1234800680C
:100BB00040F01000214908600846006820F003005A
:100BC00008600846006840F0020008601A48406863
:100BD000194948600846406848600846406840F443
:100BE000806048600846406820F47C1048600846F1
:100BF000406840F4E81048600846006840F08070A3
:100C0000086000BF0C48006800F000700028F9D0B0
:100C10000948406820F003000749486008464068DA
:100C200040F00200486000BF0348406800F00C003C
:100C30000828F9D10CBD000000100240002002403D
:100C40007047000010B51348006840F001001149DA
:100C5000086008464068104908400E494860084648
:100C600000680E4908400B4908600846006820F4F7
:100C7000802008600846406820F4FE0048604FF479
:100C80001F008860FFF768FF4FF0006004490860AC
:100C900010BD0000001002400000FFF8FFFFF6FE4C
:100CA00008ED00E010B50120FFF794FA3048C07954
:100CB000302101EB20102F4988712D48C07900F0B8
:100CC0000F003030C8712A488079302101EB2010A4
:100CD0002849C8702648807900F00F00303008712C
:100CE00023484079302101EB201022490870204828
:100CF000407900F00F00303048701D4800793021F5
:100D000001EB20101C4908721948007900F00F000F
:100D10003030487216488078302101EB2010164997
:100D200048711348807800F00F0030308871104807
:100D30000088302101EB20300F4908700C480088F2
:100D4000C0F303203030487009480088302101EB9F
:100D50002010094988700648007800F00F003030F4
:100D6000C8700348C07800F00F003030C87210BD62
:100D70001E000020080000201000002000BFFEE739
:100D800002E008C8121F08C1002AFAD17047704754
:100D9000002001E001C1121F002AFBD17047002191
:100DA00006E00A2100BF0A00A1F1010399B2FAD1BD
:100DB0000200A0F1010398B2F3D170470120FFF7C0
:100DC00003FBFFF781FCFFF7CDFDFFF76DFD42F25E
:100DD000160022490880012088700720C87024204E
:100DE000087102204871492088710020C871FFF7FE
:100DF00059FF1B48C07930381A4908702DE0FFF7B9
:100E000051FF174800783038174908701448407867
:100E1000303848701248C0783038887010480079EF
:100E20003038C8700E488079303808710C48C07965
:100E300030384871084640790A490978884205D017
:100E40000948407907490870FFF75AFD0648FFF73F
:100E5000B7FD4FF4FA70FFF714FAD0E71E00002038
:100E60000800002007000020000000208C0E000871
:100E70000000002030000000800D0008BC0E0008BB
:100E80003000002000040000900D00080903040356
:100E90000303000030303A30303A303032303133F2
:100EA0002F31302F32302037570000000000000073
:0C0EB00000000000000000000000000036
:04000005080000ED02
:00000001FF
