:020000040800F2
:100000000004002045010008130300080B0300084A
:100010000F0300088D0100087104000800000000B3
:10002000000000000000000000000000390300088C
:100030009101000800000000150300080D040008ED
:100040005F0100085F0100085F0100085F01000810
:100050005F0100085F0100085F0100085F01000800
:100060005F0100085F0100085F0100085F010008F0
:100070005F0100085F0100085F0100085F010008E0
:100080005F0100085F0100085F0100085F010008D0
:100090005F0100085F0100085F0100085F010008C0
:1000A0005F0100085F0100085F0100085F010008B0
:1000B0005F0100085F0100085F0100085F010008A0
:1000C0005F0100085F0100085F0100085F01000890
:1000D0005F0100085F0100085F0100085F01000880
:1000E0005F0100085F0100085F0100085F01000870
:1000F0005F0100085F0100085F0100085F01000860
:100100005F0100085F0100085F0100085F0100084F
:100110005F0100085F0100085F0100085F0100083F
:100120005F0100085F0100085F0100085F0100082F
:10013000DFF80CD000F018F80048004795040008DC
:10014000000400200648804706480047FEE7FEE717
:10015000FEE7FEE7FEE7FEE7FEE7FEE7FEE7FEE777
:100160001104000831010008064C074D06E0E06864
:1001700040F0010394E8070098471034AC42F6D3EE
:10018000FFF7DAFF200500083005000800BFFEE792
:10019000704700E0401E0028FCD1704708B50121DF
:1001A000202000F0B9F80121082000F0B5F84FF444
:1001B0007060ADF8000003208DF8020010208DF86B
:1001C00003006946084800F013F82020ADF800004D
:1001D00003208DF8020010208DF8030069460348C3
:1001E00000F006F808BD000000140140000C0140BA
:1001F0002DE9F041024600250026002000230024BE
:10020000002791F803C00CF00F0591F803C01CF013
:10021000100F03D091F802C04CEA0505B1F800C0F8
:100220001CF0FF0F31D0146800202BE04FF0010CC0
:100230000CFA00F3B1F800C00CEA03069E4220D18C
:1002400083004FF00F0C0CFA03F7BC4305FA03FCD4
:100250004CEA040491F803C0BCF1280F06D14FF01A
:10026000010C0CFA00FCC2F814C00AE091F803C0BB
:10027000BCF1480F05D14FF0010C0CFA00FCC2F89C
:1002800010C0401C0828D1D31460B1F800C0BCF1E4
:10029000FF0F34DD546800202EE000F1080C4FF011
:1002A000010808FA0CF3B1F800C00CEA03069E42FC
:1002B00021D183004FF00F0C0CFA03F7BC4305FA71
:1002C00003FC4CEA040491F803C0BCF1280F05D1EB
:1002D00000F1080C08FA0CF8C2F8148091F803C079
:1002E000BCF1480F07D100F1080C4FF0010808FAE3
:1002F0000CF8C2F81080401C0828CED35460BDE82A
:10030000F081416170470161704700BFFEE700BFA7
:10031000FEE770477047000029B1064A9269024320
:10032000044B9A6104E0034A92698243014B9A614B
:100330007047000000100240704710B500F002F84E
:1003400010BD0000002100202E4A126842F48032C5
:100350002C4B1A6000BF2B4A126802F40030491C73
:1003600010B9B1F5A06FF6D1264A126812F4003F19
:1003700001D0012000E00020012842D1224A126869
:1003800042F01002204B1A601A46126822F0030253
:100390001A601A46126842F002021A60194A52683C
:1003A000184B5A601A4652685A601A46526842F40C
:1003B00080625A601A46526822F47C125A601A46C9
:1003C000526842F4E8125A601A46126842F080728B
:1003D0001A6000BF0B4A126812F0007FFAD0094A77
:1003E000526822F00302074B5A601A46526842F0E4
:1003F00002025A6000BF034A526802F00C02082A47
:10040000F9D1704700100240002002407047000000
:1004100010B51348006840F0010011490860084613
:100420004068104908400E494860084600680E4977
:1004300008400B4908600846006820F480200860E6
:100440000846406820F4FE0048604FF41F008860B2
:10045000FFF773FF4FF000600449086010BD000013
:10046000001002400000FFF8FFFFF6FE08ED00E07C
:1004700000BFFEE702E008C8121F08C1002AFAD137
:1004800070477047002001E001C1121F002AFBD114
:1004900070470000FFF782FE3BE04FF480711D487B
:1004A000FFF731FF4FF400711A48FFF72CFF4FF4AC
:1004B00080611848FFF727FF4FF400611548FFF7E8
:1004C00022FF20211448FFF71EFF1448FFF761FEAA
:1004D0001248FFF75EFE4FF480710E48FFF711FFE0
:1004E0004FF400710B48FFF70CFF4FF4806109488F
:1004F000FFF707FF4FF400610648FFF702FF2021D6
:100500000548FFF7FEFE0548FFF743FE0348FFF7E7
:1005100040FEC2E700140140000C0140FFFF0F0045
:1005200030050008000000200004000084040008DA
:0400000508000131BD
:00000001FF
